{
  "contractName": "Voting",
  "abi": [
    {
      "inputs": [
        {
          "internalType": "string[]",
          "name": "_candidateNames",
          "type": "string[]"
        }
      ],
      "stateMutability": "nonpayable",
      "type": "constructor"
    },
    {
      "anonymous": false,
      "inputs": [
        {
          "indexed": true,
          "internalType": "uint256",
          "name": "candidateId",
          "type": "uint256"
        },
        {
          "indexed": false,
          "internalType": "string",
          "name": "name",
          "type": "string"
        }
      ],
      "name": "CandidateAdded",
      "type": "event"
    },
    {
      "anonymous": false,
      "inputs": [
        {
          "indexed": true,
          "internalType": "address",
          "name": "voter",
          "type": "address"
        },
        {
          "indexed": true,
          "internalType": "uint256",
          "name": "candidateId",
          "type": "uint256"
        },
        {
          "indexed": false,
          "internalType": "string",
          "name": "candidateName",
          "type": "string"
        }
      ],
      "name": "VoteCast",
      "type": "event"
    },
    {
      "inputs": [
        {
          "internalType": "uint256",
          "name": "",
          "type": "uint256"
        }
      ],
      "name": "candidates",
      "outputs": [
        {
          "internalType": "uint256",
          "name": "id",
          "type": "uint256"
        },
        {
          "internalType": "string",
          "name": "name",
          "type": "string"
        },
        {
          "internalType": "uint256",
          "name": "voteCount",
          "type": "uint256"
        }
      ],
      "stateMutability": "view",
      "type": "function",
      "constant": true
    },
    {
      "inputs": [],
      "name": "candidatesCount",
      "outputs": [
        {
          "internalType": "uint256",
          "name": "",
          "type": "uint256"
        }
      ],
      "stateMutability": "view",
      "type": "function",
      "constant": true
    },
    {
      "inputs": [
        {
          "internalType": "address",
          "name": "",
          "type": "address"
        }
      ],
      "name": "hasVoted",
      "outputs": [
        {
          "internalType": "bool",
          "name": "",
          "type": "bool"
        }
      ],
      "stateMutability": "view",
      "type": "function",
      "constant": true
    },
    {
      "inputs": [],
      "name": "owner",
      "outputs": [
        {
          "internalType": "address",
          "name": "",
          "type": "address"
        }
      ],
      "stateMutability": "view",
      "type": "function",
      "constant": true
    },
    {
      "inputs": [
        {
          "internalType": "uint256",
          "name": "_candidateId",
          "type": "uint256"
        }
      ],
      "name": "vote",
      "outputs": [],
      "stateMutability": "nonpayable",
      "type": "function"
    },
    {
      "inputs": [
        {
          "internalType": "uint256",
          "name": "_candidateId",
          "type": "uint256"
        }
      ],
      "name": "getCandidate",
      "outputs": [
        {
          "internalType": "uint256",
          "name": "",
          "type": "uint256"
        },
        {
          "internalType": "string",
          "name": "",
          "type": "string"
        },
        {
          "internalType": "uint256",
          "name": "",
          "type": "uint256"
        }
      ],
      "stateMutability": "view",
      "type": "function",
      "constant": true
    },
    {
      "inputs": [],
      "name": "getAllCandidates",
      "outputs": [
        {
          "components": [
            {
              "internalType": "uint256",
              "name": "id",
              "type": "uint256"
            },
            {
              "internalType": "string",
              "name": "name",
              "type": "string"
            },
            {
              "internalType": "uint256",
              "name": "voteCount",
              "type": "uint256"
            }
          ],
          "internalType": "struct Voting.Candidate[]",
          "name": "",
          "type": "tuple[]"
        }
      ],
      "stateMutability": "view",
      "type": "function",
      "constant": true
    },
    {
      "inputs": [],
      "name": "getTotalVotes",
      "outputs": [
        {
          "internalType": "uint256",
          "name": "",
          "type": "uint256"
        }
      ],
      "stateMutability": "view",
      "type": "function",
      "constant": true
    },
    {
      "inputs": [
        {
          "internalType": "address",
          "name": "_voter",
          "type": "address"
        }
      ],
      "name": "getVoterStatus",
      "outputs": [
        {
          "internalType": "bool",
          "name": "",
          "type": "bool"
        }
      ],
      "stateMutability": "view",
      "type": "function",
      "constant": true
    },
    {
      "inputs": [],
      "name": "getCandidatesCount",
      "outputs": [
        {
          "internalType": "uint256",
          "name": "",
          "type": "uint256"
        }
      ],
      "stateMutability": "view",
      "type": "function",
      "constant": true
    }
  ],
  "bytecode": "0x60806040523480156200001157600080fd5b5060405162000e4738038062000e478339810160408190526200003491620001c0565b600380546001600160a01b0319163317905560005b81518110156200014957600280549060006200006583620002ea565b91905055506040518060600160405280600254815260200183838151811062000092576200009262000312565b602090810291909101810151825260009181018290526002548252818152604090912082518155908201516001820190620000ce9082620003b7565b50604082015181600201559050506002547fe83b2a43e7e82d975c8a0a6d2f045153c869e111136a34d1889ab7b598e396a383838151811062000115576200011562000312565b60200260200101516040516200012c919062000483565b60405180910390a2806200014081620002ea565b91505062000049565b5050620004b8565b634e487b7160e01b600052604160045260246000fd5b604051601f8201601f191681016001600160401b038111828210171562000192576200019262000151565b604052919050565b60005b83811015620001b75781810151838201526020016200019d565b50506000910152565b60006020808385031215620001d457600080fd5b82516001600160401b0380821115620001ec57600080fd5b8185019150601f86818401126200020257600080fd5b82518281111562000217576200021762000151565b8060051b6200022886820162000167565b918252848101860191868101908a8411156200024357600080fd5b87870192505b83831015620002dc57825186811115620002635760008081fd5b8701603f81018c13620002765760008081fd5b888101516040888211156200028f576200028f62000151565b620002a2828901601f19168c0162000167565b8281528e82848601011115620002b85760008081fd5b620002c9838d83018487016200019a565b8552505050918701919087019062000249565b9a9950505050505050505050565b6000600182016200030b57634e487b7160e01b600052601160045260246000fd5b5060010190565b634e487b7160e01b600052603260045260246000fd5b600181811c908216806200033d57607f821691505b6020821081036200035e57634e487b7160e01b600052602260045260246000fd5b50919050565b601f821115620003b257600081815260208120601f850160051c810160208610156200038d5750805b601f850160051c820191505b81811015620003ae5782815560010162000399565b5050505b505050565b81516001600160401b03811115620003d357620003d362000151565b620003eb81620003e4845462000328565b8462000364565b602080601f8311600181146200042357600084156200040a5750858301515b600019600386901b1c1916600185901b178555620003ae565b600085815260208120601f198616915b82811015620004545788860151825594840194600190910190840162000433565b5085821015620004735787850151600019600388901b60f8161c191681555b5050505050600190811b01905550565b6020815260008251806020840152620004a48160408501602087016200019a565b601f01601f19169190910160400192915050565b61097f80620004c86000396000f3fe608060405234801561001057600080fd5b506004361061009e5760003560e01c806335b8e8201161006657806335b8e8201461013e57806378e3ef20146101515780638da5cb5b1461017d5780639a0e7d66146101a8578063bb9aa28f146101b057600080fd5b80630121b93f146100a357806309eef43e146100b85780632d35a8a2146100f05780632e6997fe146101075780633477ee2e1461011c575b600080fd5b6100b66100b13660046106a9565b6101b8565b005b6100db6100c63660046106c2565b60016020526000908152604090205460ff1681565b60405190151581526020015b60405180910390f35b6100f960025481565b6040519081526020016100e7565b61010f610300565b6040516100e79190610738565b61012f61012a3660046106a9565b610482565b6040516100e7939291906107b9565b61012f61014c3660046106a9565b61052d565b6100db61015f3660046106c2565b6001600160a01b031660009081526001602052604090205460ff1690565b600354610190906001600160a01b031681565b6040516001600160a01b0390911681526020016100e7565b6100f961066a565b6002546100f9565b3360009081526001602052604090205460ff16156102165760405162461bcd60e51b8152602060048201526016602482015275165bdd481a185d9948185b1c9958591e481d9bdd195960521b60448201526064015b60405180910390fd5b8060008111801561022957506002548111155b61026c5760405162461bcd60e51b8152602060048201526014602482015273125b9d985b1a590818d85b991a59185d1948125160621b604482015260640161020d565b336000908152600160208181526040808420805460ff191690931790925584835282905281206002018054916102a1836107f8565b919050555081336001600160a01b03167f41aeb55eef25a94e94aeac300a628610ffa8099eb2bf991b3ae640d42233467d6000808681526020019081526020016000206001016040516102f49190610845565b60405180910390a35050565b6060600060025467ffffffffffffffff81111561031f5761031f6108f1565b60405190808252806020026020018201604052801561037457816020015b61036160405180606001604052806000815260200160608152602001600081525090565b81526020019060019003908161033d5790505b50905060015b600254811161047c57600081815260208181526040918290208251606081019093528054835260018101805491928401916103b490610811565b80601f01602080910402602001604051908101604052809291908181526020018280546103e090610811565b801561042d5780601f106104025761010080835404028352916020019161042d565b820191906000526020600020905b81548152906001019060200180831161041057829003601f168201915b505050505081526020016002820154815250508260018361044e9190610907565b8151811061045e5761045e610920565b60200260200101819052508080610474906107f8565b91505061037a565b50919050565b600060208190529081526040902080546001820180549192916104a490610811565b80601f01602080910402602001604051908101604052809291908181526020018280546104d090610811565b801561051d5780601f106104f25761010080835404028352916020019161051d565b820191906000526020600020905b81548152906001019060200180831161050057829003601f168201915b5050505050908060020154905083565b6000606060008360008111801561054657506002548111155b6105895760405162461bcd60e51b8152602060048201526014602482015273125b9d985b1a590818d85b991a59185d1948125160621b604482015260640161020d565b6000806000878152602001908152602001600020604051806060016040529081600082015481526020016001820180546105c290610811565b80601f01602080910402602001604051908101604052809291908181526020018280546105ee90610811565b801561063b5780601f106106105761010080835404028352916020019161063b565b820191906000526020600020905b81548152906001019060200180831161061e57829003601f168201915b505050918352505060029190910154602091820152815190820151604090920151909891975095509350505050565b60008060015b600254811161047c576000818152602081905260409020600201546106959083610936565b9150806106a1816107f8565b915050610670565b6000602082840312156106bb57600080fd5b5035919050565b6000602082840312156106d457600080fd5b81356001600160a01b03811681146106eb57600080fd5b9392505050565b6000815180845260005b81811015610718576020818501810151868301820152016106fc565b506000602082860101526020601f19601f83011685010191505092915050565b60006020808301818452808551808352604092508286019150828160051b87010184880160005b838110156107ab57603f19898403018552815160608151855288820151818a87015261078d828701826106f2565b9289015195890195909552509487019492509086019060010161075f565b509098975050505050505050565b8381526060602082015260006107d260608301856106f2565b9050826040830152949350505050565b634e487b7160e01b600052601160045260246000fd5b60006001820161080a5761080a6107e2565b5060010190565b600181811c9082168061082557607f821691505b60208210810361047c57634e487b7160e01b600052602260045260246000fd5b600060208083526000845481600182811c91508083168061086757607f831692505b858310810361088457634e487b7160e01b85526022600452602485fd5b8786018381526020018180156108a157600181146108b7576108e2565b60ff198616825284151560051b820196506108e2565b60008b81526020902060005b868110156108dc578154848201529085019089016108c3565b83019750505b50949998505050505050505050565b634e487b7160e01b600052604160045260246000fd5b8181038181111561091a5761091a6107e2565b92915050565b634e487b7160e01b600052603260045260246000fd5b8082018082111561091a5761091a6107e256fea2646970667358221220ad7cd9d673556df1fc9c1c5ec02f634a3a8b61c5826a817cca51199f13f447bc64736f6c63430008130033",
  "immutableReferences": {},
  "source": "// SPDX-License-Identifier: MIT\npragma solidity ^0.8.19;\n\ncontract Voting {\n    struct Candidate {\n        uint256 id;\n        string name;\n        uint256 voteCount;\n    }\n\n    mapping(uint256 => Candidate) public candidates;\n    mapping(address => bool) public hasVoted;\n    uint256 public candidatesCount;\n    address public owner;\n\n    event VoteCast(address indexed voter, uint256 indexed candidateId, string candidateName);\n    event CandidateAdded(uint256 indexed candidateId, string name);\n\n    modifier onlyOwner() {\n        require(msg.sender == owner, \"Only owner can call this function\");\n        _;\n    }\n\n    modifier hasNotVoted() {\n        require(!hasVoted[msg.sender], \"You have already voted\");\n        _;\n    }\n\n    modifier validCandidate(uint256 _candidateId) {\n        require(_candidateId > 0 && _candidateId <= candidatesCount, \"Invalid candidate ID\");\n        _;\n    }\n\n    constructor(string[] memory _candidateNames) {\n        owner = msg.sender;\n        \n        // Initialize candidates\n        for (uint256 i = 0; i < _candidateNames.length; i++) {\n            candidatesCount++;\n            candidates[candidatesCount] = Candidate(candidatesCount, _candidateNames[i], 0);\n            emit CandidateAdded(candidatesCount, _candidateNames[i]);\n        }\n    }\n\n    function vote(uint256 _candidateId) public hasNotVoted validCandidate(_candidateId) {\n        hasVoted[msg.sender] = true;\n        candidates[_candidateId].voteCount++;\n        \n        emit VoteCast(msg.sender, _candidateId, candidates[_candidateId].name);\n    }\n\n    function getCandidate(uint256 _candidateId) public view validCandidate(_candidateId) returns (uint256, string memory, uint256) {\n        Candidate memory candidate = candidates[_candidateId];\n        return (candidate.id, candidate.name, candidate.voteCount);\n    }\n\n    function getAllCandidates() public view returns (Candidate[] memory) {\n        Candidate[] memory allCandidates = new Candidate[](candidatesCount);\n        \n        for (uint256 i = 1; i <= candidatesCount; i++) {\n            allCandidates[i - 1] = candidates[i];\n        }\n        \n        return allCandidates;\n    }\n\n    function getTotalVotes() public view returns (uint256) {\n        uint256 totalVotes = 0;\n        for (uint256 i = 1; i <= candidatesCount; i++) {\n            totalVotes += candidates[i].voteCount;\n        }\n        return totalVotes;\n    }\n\n    function getVoterStatus(address _voter) public view returns (bool) {\n        return hasVoted[_voter];\n    }\n\n    function getCandidatesCount() public view returns (uint256) {\n        return candidatesCount;\n    }\n}\n",
  "sourcePath": "/home/sage/Desktop/voting_system/contracts/Voting.sol",
  "compiler": {
    "name": "solc",
    "version": "0.8.19+commit.7dd6d404.Emscripten.clang"
  },
  "schemaVersion": "3.4.16",
  "updatedAt": "2025-05-27T15:15:56.693Z",
  "networkType": "ethereum",
  "devdoc": {
    "kind": "dev",
    "methods": {},
    "version": 1
  },
  "userdoc": {
    "kind": "user",
    "methods": {},
    "version": 1
  }
}